:100000000C94A8000C94D0000C94D0000C94D00058
:100010000C94D0000C94D0000C94D0000C94D00020
:100020000C94D0000C94D0000C94D0000C94D00010
:100030000C94D0000C94D0000C94D0000C94D00000
:100040000C94B0050C94D0000C947E050C945805CB
:100050000C94D0000C94D0000C94D0000C94D000E0
:100060000C94FA050C94D00008000000BE922449BC
:10007000123EABAAAA2ABECDCCCC4C3E00000080DA
:10008000BEABAAAAAA3E00000000BF000000803F4D
:100090000000000000084178D3BB4387D1133D190D
:1000A0000E3CC3BD4282AD2B3E68EC8276BED98F3A
:1000B000E1A93E4C80EFFFBE01C4FF7F3F0000007E
:1000C00000004E414E494E495459494E46CDCCCC84
:1000D0003D0AD7233C17B7D13877CC2B329595E61C
:1000E000241FB14F0A000020410000C84200401CFC
:1000F0004620BCBE4CCA1B0E5AAEC59D7400000003
:1001000008000201000003040700000000000000D6
:100110000000000000250028002B00000000002443
:100120000027002A00040404040404040402020258
:100130000202020303030303030102040810204028
:100140008001020408102001020408102000150795
:1001500011241FBECFEFD8E0DEBFCDBF22E0AEE35B
:10016000B1E001C01D92A338B207E1F711E0A0E0B1
:10017000B1E0E2EBF3E202C005900D92AE33B107BD
:10018000D9F710E0C8EAD0E004C02197FE010E9430
:10019000DF0FC73AD107C9F70E9442070C94D71165
:1001A0000C94000090E0FC01E75CFE4F24918B5D15
:1001B0009E4FFC018491882399F090E0880F991F4D
:1001C000FC01E55EFE4FA591B491FC01EF5EFE4F90
:1001D000859194918FB7F894EC91E22BEC938FBFBB
:1001E0000895AF92BF92CF92DF92EF92FF920F935A
:1001F0001F93CF93DF936C017B018B01040F151FBD
:10020000EB015E01AE18BF08C017D10759F0699124
:10021000D601ED91FC910190F081E02DC601099588
:10022000892B79F7C501DF91CF911F910F91FF9035
:10023000EF90DF90CF90BF90AF900895FC01538D69
:10024000448D252F30E0842F90E0821B930B5417B0
:1002500010F0CF96089501970895FC01918D828D3D
:10026000981761F0A28DAE0FBF2FB11D5D968C91D6
:10027000928D9F5F9F73928F90E008958FEF9FEF15
:1002800008952FB7F8948091DC019091DD01A09141
:10029000DE01B091DF012FBF8093E8019093E90167
:1002A000A093EA01B093EB0180EE91E00E942D0152
:1002B00097FF26C02FB7F8948091DC019091DD0163
:1002C000A091DE01B091DF012FBF4091E801509174
:1002D000E9016091EA017091EB01841B950BA60B7B
:1002E000B70B4091E4015091E5016091E6017091F6
:1002F000E70184179507A607B707B0F28FEF9FEFC6
:100300000895FC01918D828D981731F0828DE80F50
:10031000F11D858D90E008958FEF9FEF0895FC010A
:10032000918D228D892F90E0805C9F4F821B9109D7
:100330008F739927089580EE91E00E948F0121E04C
:10034000892B09F420E0822F089580E090E0892B2A
:1003500029F00E949B0181110C9400000895FC017A
:10036000A48DA80FB92FB11DA35ABF4F2C91848D16
:1003700090E001968F739927848FA689B7892C9373
:10038000A089B1898C91837080648C93938D848DC6
:10039000981306C00288F389E02D80818F7D8083C9
:1003A0000895EF92FF920F931F93CF93DF93EC0189
:1003B00081E0888F9B8D8C8D98131AC0E889F9890C
:1003C000808185FF15C09FB7F894EE89FF8960830F
:1003D000E889F98980818370806480839FBF81E090
:1003E00090E0DF91CF911F910F91FF90EF900895D2
:1003F000F62E0B8D10E00F5F1F4F0F731127E02EAD
:100400008C8D8E110CC00FB607FCFACFE889F989E4
:10041000808185FFF5CFCE010E94AF01F1CFEB8D3A
:10042000EC0FFD2FF11DE35AFF4FF0829FB7F894B8
:100430000B8FEA89FB8980818062CFCFCF93DF93D6
:10044000EC01888D8823B9F0AA89BB89E889F989EC
:100450008C9185FD03C0808186FD0DC00FB607FC21
:10046000F7CF8C9185FFF2CF808185FFEDCFCE0154
:100470000E94AF01E9CFDF91CF91089590E0FC0198
:10048000E350FF4F2491FC01E75CFE4F3491FC01E7
:10049000EB5DFE4FE491EE23C9F0222339F02330C7
:1004A00001F1A8F4213019F1223029F1F0E0EE0F2A
:1004B000FF1FEF5EFE4FA591B4918FB7F894EC91BA
:1004C000611126C030953E233C938FBF089527309D
:1004D000A9F02830C9F0243049F7809180008F7D41
:1004E00003C0809180008F7780938000DFCF84B538
:1004F0008F7784BDDBCF84B58F7DFBCF8091B0003B
:100500008F778093B000D2CF8091B0008F7DF9CFEC
:100510003E2BDACF8E3008F08E5087708064809347
:100520007C0080917A00806480937A0080917A00C8
:1005300086FDFCCF809178009091790008953FB7B7
:10054000F8948091AA019091AB01A091AC01B09177
:10055000AD0126B5A89B05C02F3F19F00196A11D3E
:10056000B11D3FBFBA2FA92F982F8827BC01CD01FD
:10057000620F711D811D911D42E0660F771F881F5C
:10058000991F4A95D1F708958F929F92AF92BF928B
:10059000CF92DF92EF92FF926B017C010E949F024B
:1005A0004B015C01C114D104E104F104B9F00E94D3
:1005B0009F02681979098A099B09683E7340810581
:1005C000910580F321E0C21AD108E108F10888EE14
:1005D000880E83E0981EA11CB11CE4CFFF90EF9021
:1005E000DF90CF90BF90AF909F908F90089585ED52
:1005F0008093BC008091BC0084FDFCCF10928301ED
:10060000089520915F01260F3327331F21323105D2
:10061000ECF420918301FC0190E080E0243069F04B
:1006200082E00895A0915F012191AC01415C5E4F91
:10063000A40FB52FB11D2C930196861798F38091C6
:100640005F01680F60935F0180E0089581E0089585
:1006500008958FEF9FEF08958FEF9FEF089580919A
:100660003E0190E09195819591090895CF93DF9394
:10067000CB01EA01642F0E940103CE01DF91CF91EB
:100680000895CF93DF931F92CDB7DEB7698361E002
:10069000CE0101960E94010381E090E00F90DF916E
:1006A000CF91089590E080E00895CF92DF92EF928D
:1006B000FF9281E00E948A02BC01990F880B990B7E
:1006C0000E94AF0C20E030E040EA50E40E940E0DA2
:1006D00020E030EC4FE754E40E948D0E6B017C016A
:1006E00080E00E948A02BC01990F880B990B0E943E
:1006F000AF0CA70196010E940E0D20E030E040E80B
:100700005AE30E940E0D9B01AC01C701B6010E9485
:100710008D0E20E030E44CE156E40E940E0D20E006
:1007200030E040E85FE30E94200EFF90EF90DF9002
:10073000CF900895FC0101900020E9F73197AF01B7
:10074000481B590BBC0180EE91E00C94F1008F9294
:100750009F92AF92BF920F931F93CF93DF93CDB72A
:10076000DEB7A1970FB6F894DEBF0FBECDBF19A2BA
:10077000423008F44AE08E010F5D1F4F842E912C09
:10078000B12CA12CA50194010E94BD0FE62FB90147
:10079000CA01EA30F4F4E05DD801EE938D01232B19
:1007A000242B252B79F790E080E0109719F0CD01EC
:1007B0000E949A03A1960FB6F894DEBF0FBECDBF7C
:1007C000DF91CF911F910F91BF90AF909F908F902D
:1007D0000895E95CE1CF4F925F926F927F928F9282
:1007E0009F92AF92BF92CF92DF92EF92FF920F93C0
:1007F0001F93CF936B017C01742EAC019B010E946F
:10080000830F882399F088E191E0CF911F910F9198
:10081000FF90EF90DF90CF90BF90AF909F908F9020
:100820007F906F905F904F900C949A034601570110
:10083000E894B7F82FEF3FEF4FE75FE7C501B4014A
:100840000E94830F81110DC02FEF3FEF4FE75FE74D
:10085000C501B4010E94A80C18161CF48CE191E0AB
:10086000D4CF2FEF3FEF4FE75FE4C701B6010E94FF
:100870002E0F18161CF480E291E0C7CF2FEF3FEF48
:100880004FE75FECC701B6010E94A80C87FDF3CFCC
:1008900020E030E0A901C701B6010E94A80C10E0D9
:1008A00000E087FF0AC06DE280EE91E00E94D10176
:1008B0008C01F7FAF094F7F8F094C0E060E070E093
:1008C00080E09FE37C1641F020E030E040E251E41C
:1008D0000E948D0ECF5FF6CFA70196010E94210ED8
:1008E0002B013C010E94FF0E4B015C014AE00E947B
:1008F000A7037C01E00EF11ECC23C1F1C501B401B8
:100900000E94AD0C9B01AC01C301B2010E94200EFC
:100910004B015C016EE280EE91E00E94D101E80E95
:10092000F91EC15018F120E030E040E251E4C50169
:10093000B4010E940E0D2B013C010E94FF0E4B01E1
:10094000B12CA12C4AE0C501B4010E94A703E80E16
:10095000F91EC501B4010E94AD0C9B01AC01C3019D
:10096000B2010E94200E4B015C01DBCFC701CF9189
:100970001F910F91FF90EF90DF90CF90BF90AF90BD
:100980009F908F907F906F905F904F900895CF933E
:10099000DF930E94EB03EC0184E291E00E949A0352
:1009A0008C0F9D1FDF91CF9108950F931F93CF93CD
:1009B000DF93EC0188819981009759F02A813B816E
:1009C0002617370730F081E0DF91CF911F910F910B
:1009D00008958B016F5F7F4F0E940A11009759F0B5
:1009E000998388831B830A832C813D81232B59F7AC
:1009F000FC011082E8CF80E0E7CFEF92FF920F93E7
:100A00001F93CF93DF9300D0CDB7DEB78C01FC01ED
:100A100011821082138212821582148270E060E0CB
:100A20000E94D504F8012081318181112FC0211548
:100A3000310519F0C9010E948110F801118210825C
:100A400015821482138212820E94410197FD26C0F2
:100A500089831A82F801E480F580FFEFEF1AFF0A1C
:100A6000B701C8010E94D504882371F3F8012081E1
:100A7000318184819581BE016F5F7F4F820F931F0B
:100A80000E94D011F801F582E482DECF1582148233
:100A900066E271E0C9010E94D011D6CFC8010F9063
:100AA0000F90DF91CF911F910F91FF90EF900895DC
:100AB0001F920F920FB60F9211242F933F934F93D3
:100AC0005F936F937F938F939F93AF93BF93EF93B6
:100AD000FF9380EE91E00E94AF01FF91EF91BF91F3
:100AE000AF919F918F917F916F915F914F913F91C6
:100AF0002F910F900FBE0F901F9018951F920F927D
:100B00000FB60F9211242F938F939F93EF93FF9320
:100B1000E091F001F091F1018081E091F601F09116
:100B2000F70182FD1BC090818091F9018F5F8F7367
:100B30002091FA01821741F0E091F901F0E0E052D2
:100B4000FE4F958F8093F901FF91EF919F918F91C7
:100B50002F910F900FBE0F901F9018958081F4CFAA
:100B60001F920F920FB60F9211242F933F938F93E2
:100B70009F93AF93BF938091DC019091DD01A09191
:100B8000DE01B091DF013091A90123E0230F2D3761
:100B900058F50196A11DB11D2093A9018093DC0198
:100BA0009093DD01A093DE01B093DF018091AA0153
:100BB0009091AB01A091AC01B091AD010196A11D46
:100BC000B11D8093AA019093AB01A093AC01B093A7
:100BD000AD01BF91AF919F918F913F912F910F9058
:100BE0000FBE0F901F90189526E8230F0296A11DA7
:100BF000B11DD2CF1F920F920FB60F9211242F93D7
:100C00003F934F935F936F937F938F939F93AF9394
:100C1000BF93EF93FF938091B900887F803609F4EA
:100C20004AC0F0F5883209F4A5C018F5803109F4FE
:100C300099C0B8F4882309F4F5C0883009F492C04B
:100C4000FF91EF91BF91AF919F918F917F916F91A4
:100C50005F914F913F912F910F900FBE0F901F907A
:100C60001895883109F486C0803251F7809382014B
:100C700014C0803409F49BC040F48033B9F3883346
:100C8000F9F68093820185ECAEC0803509F483C00B
:100C9000883509F494C0883499F60E94F702D0CFC1
:100CA000883909F48AC038F5883729F050F4883635
:100CB00011F0803729F683E080938301109281013F
:100CC00055C0883809F479C0803919F0803809F0A6
:100CD000B7CF80918101803208F06FC0E09181012F
:100CE00081E08E0F809381018091BB00F0E0EF598D
:100CF000FE4F80833BC0803B39F0D0F4803A09F44A
:100D000077C0883A09F09CCF84E0809383011092E9
:100D1000600110925F01F0E0E0E0099580915F01D1
:100D200081110FC081E080935F0110923F0109C0E3
:100D3000803C09F4A8CF883C09F4A5CF883B09F092
:100D40007FCFE091600181E08E0F80936001F0E041
:100D5000E15CFE4F80818093BB00909160018091A7
:100D60005F0129C08091A8018093BB0085EC80932E
:100D7000BC0066CF9091A7018091A601981758F505
:100D8000E091A70181E08E0F8093A701F0E0EA5780
:100D9000FE4F8081E9CFE091A70181E08E0F809323
:100DA000A7018091BB00F0E0EA57FE4F808390914D
:100DB000A7018091A6019817C8F285E8D8CFE091E5
:100DC000A70181E08E0F8093A7018091BB00F0E026
:100DD000EA57FE4F80838091850181115ECF81E0CB
:100DE0008093840184EA8093BC001092830128CF11
:100DF00085EC8093BC001092830180918101803248
:100E000030F4E0918101F0E0EF59FE4F10826091E3
:100E1000810170E081E691E0F0E0E0E00995109258
:100E200081010ECF1092820138CFE0EEF1E0138203
:100E3000128288EE93E0A0E0B0E084839583A683DD
:100E4000B7838AE091E09183808385EC90E0958779
:100E5000848784EC90E09787868780EC90E0918B84
:100E6000808B81EC90E0938B828B82EC90E0958B71
:100E7000848B86EC90E0978B868B118E128E138E6E
:100E8000148E0895CF93DF93CDB7DEB766970FB674
:100E9000F894DEBF0FBECDBF789484B5826084BD68
:100EA00084B5816084BD85B5826085BD85B581606E
:100EB00085BD80916E00816080936E0010928100EC
:100EC00080918100826080938100809181008160A7
:100ED0008093810080918000816080938000809168
:100EE000B10084608093B1008091B00081608093F4
:100EF000B00080917A00846080937A0080917A00BB
:100F0000826080937A0080917A00816080937A0079
:100F100080917A00806880937A001092C100E091FD
:100F2000F001F091F10182E08083E091EC01F09119
:100F3000ED011082E091EE01F091EF018FEC8083E2
:100F40001092F801E091F401F091F50186E08083C0
:100F5000E091F201F091F301808180618083E09162
:100F6000F201F091F301808188608083E091F201C9
:100F7000F091F301808180688083E091F201F0912B
:100F8000F30180818F7D80838BE00E94D2008CE012
:100F90000E94D2008DE00E94D20030E0232E30E08B
:100FA000332E80EE91E00E948F012091DA01309182
:100FB000DB01181619060CF079C0233031050CF04E
:100FC00075C0CE0101960E94FD0489819A81009727
:100FD00009F468C00E94330B0091DA011091DB0123
:100FE00023E333E948E853E40E94210E2B013C013E
:100FF000000F111F000F111FF801E253FE4F408236
:1010000051826282738289819A810E9481102AE0D2
:10101000A22EB12CC12CD12C76010E9455039B012C
:10102000AC01C701B6010E94210E6B017C0168EC86
:1010300070E080E090E00E94C40281E0A81AB1084C
:1010400061F70E531E4F20E030E040E251E4C7014B
:10105000B6010E948D0EF8016083718382839383B1
:1010600042E050E0C301B2010E94C704E091DA01FE
:10107000F091DB01EE0FFF1FEE0FFF1FEE53FE4F4F
:10108000608171818281938142E050E00E94C704B7
:101090008091DA019091DB0101969093DB018093BE
:1010A000DA017FCF60E070E0CB0196CF23303105CD
:1010B00009F055C16091C2017091C3018091C401D2
:1010C0009091C5010E943B0F6F83788789879A872B
:1010D0006091C6017091C7018091C8019091C901CA
:1010E0000E943B0F6B017C016091CA017091CB01A2
:1010F0008091CC019091CD010E943B0F4B015C018E
:101100002091CE013091CF014091D0015091D10179
:1011100060E070E080E89FE30E948D0E6B877C8723
:101120008D879E872091D2013091D3014091D401C7
:101130005091D50160E070E080E89FE30E948D0E41
:101140002B853C854D855E850E94200E2B013C0140
:101150002F81388549855A85C701B6010E94200E26
:101160009B01AC01C301B2010E948D0E6F87788B89
:10117000898B9A8B2091D6013091D7014091D8016B
:101180005091D90160E070E080E89FE30E948D0EED
:101190002B853C854D855E850E94200E2B013C01F0
:1011A0002F81388549855A85C501B4010E94200EDA
:1011B0009B01AC01C301B2010E948D0E2F853889BD
:1011C00049895A890E94200E2B013C01A7019601F2
:1011D000C501B4010E94200E9B01AC01C301B20104
:1011E0000E948D0E2B013C01A70196016F8178852D
:1011F00089859A850E94210EA50194010E94210EE5
:101200009B01AC0160E070E080E89FE30E948D0EDE
:101210009B01AC01C301B2010E940E0D4B015C01A8
:101220008092BE019092BF01A092C001B092C10114
:101230002F81388549855A85CA01B9010E940E0D52
:101240002B013C01A70196016F81788589859A85DC
:101250000E940E0DA30192010E94210E6B8B7C8BCC
:101260008D8B9E8BA7019601C701B6010E940E0DC2
:101270009B01AC016B897C898D899E890E94210E1E
:10128000A50194010E940E0D9B01AC016F85788928
:1012900089899A890E94200E6B017C01C092BA0153
:1012A000D092BB01E092BC01F092BD01A30192017A
:1012B000C501B4010E940E0DA70196010E94210EE6
:1012C0002F81388549855A850E940E0D9B01AC01FE
:1012D0006B857C858D859E850E94200E6093B6016E
:1012E0007093B7018093B8019093B90187E291E0C0
:1012F0000E949A036091B6017091B7018091B80184
:101300009091B90141E150E00E94C7048BE291E065
:101310000E949A036091BA017091BB018091BC0157
:101320009091BD0141E150E00E94C7048FE291E03D
:101330000E949A036091BE017091BF018091C0012B
:101340009091C10141E150E00E94C7048091DA010F
:101350009091DB0101969093DB018093DA0180EE9E
:1013600091E00E948F01181619060CF0B6C080910A
:10137000DA019091DB0104970CF4AFC0CE01019625
:101380000E94FD0489819A81009751F00E94330BDD
:1013900011E020E030E040E050EC0E94A80C811108
:1013A00010E089819A810E948110112309F495C06F
:1013B0000AE010E0C12CD12C76010E9455039B015C
:1013C000AC01C701B6010E94210E6B017C0168ECE3
:1013D00070E080E090E00E94C4020150110969F7BA
:1013E00020E030E040E251E4C701B6010E948D0EDA
:1013F0006093B2017093B3018093B4019093B501EF
:101400000E943B0F6B017C012091BA013091BB011E
:101410004091BC015091BD010E940E0D2091B6017A
:101420003091B7014091B8015091B9010E94210E4D
:101430004B015C012091BE013091BF014091C00180
:101440005091C101C701B6010E940E0DA70196017E
:101450000E940E0DA70196010E940E0D9B01AC018A
:10146000C501B4010E94210E9B01AC0160E070E057
:1014700080E89FE30E948D0E23E333E948E853E4BC
:101480000E94200E6093AE017093AF018093B00173
:101490009093B10183E391E00E949A036091AE01C1
:1014A0007091AF018091B0019091B10143E00E9431
:1014B000EB038BE391E00E949A0384E291E00E94A7
:1014C0009A036091B2017091B3018091B40190913F
:1014D000B50142E050E00E94C7048091DA0190918A
:1014E000DB0104970CF479C00E9455036093B201AC
:1014F0007093B3018093B4019093B5010E943B0FA8
:101500006B017C012091BA013091BB014091BC017B
:101510005091BD010E940E0D2091B6013091B7018E
:101520004091B8015091B9010E94210E4B015C011C
:101530002091BE013091BF014091C0015091C10185
:10154000C701B6010E940E0DA70196010E940E0D63
:10155000A70196010E940E0D9B01AC01C501B401CB
:101560000E94210E9B01AC0160E070E080E89FE3E7
:101570000E948D0E23E333E948E853E40E94200ED5
:101580006B017C01C092AE01D092AF01E092B0013C
:10159000F092B10120E030E0A9010E942E0F181650
:1015A00044F520E030E048EC51E4C701B6010E9468
:1015B000A80C87FF1EC061E08BE00E943E0260E045
:1015C0008CE00E943E0260E08DE00E943E0268ECEA
:1015D00070E080E090E00E94C4022114310409F41C
:1015E000E0CC0E949B01882309F4DBCC0E94000020
:1015F000D8CC20E030E040ED51E4C701B6010E94B4
:101600002E0F18168CF420E030E048E452E4C701B5
:10161000B6010E94A80C87FF07C061E08CE00E9421
:101620003E0260E08BE0CDCF20E030E04CE452E4BD
:10163000C701B6010E942E0F18164CF620E030E0CC
:1016400044EB52E4C701B6010E94A80C87FFBFCF4C
:1016500061E08DE00E943E0260E08CE00E943E026C
:1016600060E08BE0B2CF662777270C94370BB0E0B1
:10167000A0E0EDE3FBE00C94E00D5C017B01611563
:10168000710519F0DB018D939C9385010F5F1F4F4E
:10169000F501D0818D2F90E00E94870C6C01892B81
:1016A000B9F5DD32B9F50F5F1F4FD5011196DC9109
:1016B000C1E05801F1E0AF1AB10843E050E06AEC34
:1016C00070E0C5010E94900C892B69F5680182E0E9
:1016D000C80ED11C45E050E065EC70E0C6010E94E8
:1016E000900C892B21F4680197E0C90ED11CE114FC
:1016F000F10419F0D701CD92DC9260E070E080E84F
:101700009FEFC111FFC060E070E080E89FE7FAC082
:101710005801BBCFDB3229F485010E5F1F4FF50165
:10172000D181C0E0C6CF43E050E062EC70E0C5017B
:101730000E94900C892BE9F0F80110E000E020E015
:1017400030E0A9015F01B0ED8B2E8D0E89E0881588
:10175000C8F19C2E689491F88C2F8870C2FF16C037
:10176000811102C00F5F1F4F3196D501DC91C92D49
:10177000E9CFE114F10429F00E5F1F4FF701118347
:10178000008360E070E080EC9FE7BCC0882311F02C
:1017900001501109A5E0B0E00E94CF0D9B01AC0102
:1017A000220F331F441F551F280D311D411D511D90
:1017B000283999E93907490799E15907A8F2C6601C
:1017C0009C2ED2CFAEEF8A1206C0C3FD3CC09C2E29
:1017D000689493F8C9CFDF7DD534A9F580818D3227
:1017E00039F4C061DF011296818162E070E006C0C9
:1017F000DF018B32C1F3119661E070E080535D012F
:10180000A61AB70A8A30F8F4E0E8CE16ECE0DE0655
:101810005CF4B601660F771F660F771FC60ED71EE2
:10182000CC0CDD1CC80ED11C5D01FFEFAF1ABF0A46
:101830008C9180538A30A8F1C4FF03C0D194C19425
:10184000D1080C0D1D1DC1FF09C0E114F10431F0D8
:1018500081E0A81AB108D701AD92BC92CA01B901C2
:101860000E94AD0CC370C33009F490584B015C0169
:1018700020E030E0A9010E94A80C882309F440C0B0
:10188000C9EFD0E017FF05C0119501951109C1EE10
:10189000D0E06E01B8E1CB1AD10880E2E82EF12C3D
:1018A0000FC0D501B1CFFE012591359145915491DD
:1018B0000E191F09C501B4010E940E0D4B015C01F8
:1018C000D501C4010E151F0574F72497F594E7940C
:1018D000CC16DD06A9F78A2F880F8B2F881F8F3F24
:1018E00049F020E030E0A901C501B4010E94A80C34
:1018F000811106C082E290E090937E0280937D0287
:10190000C501B401CDB7DEB7ECE00C94FC0D91112C
:101910000C947B0D803219F089508550C8F70895DA
:10192000FB01DC014150504088F08D9181341CF066
:101930008B350CF4805E659161341CF06B350CF4D2
:10194000605E861B611171F3990B0895881BFCCFB3
:101950000E94EA0C08F481E00895E89409C097FB1E
:101960003EF490958095709561957F4F8F4F9F4F76
:101970009923A9F0F92F96E9BB279395F6958795BA
:1019800077956795B795F111F8CFFAF4BB0F11F47D
:1019900060FF1BC06F5F7F4F8F4F9F4F16C0882324
:1019A00011F096E911C0772321F09EE8872F762F5A
:1019B00005C0662371F096E8862F70E060E02AF09B
:1019C0009A95660F771F881FDAF7880F9695879587
:1019D00097F90895990F0008550FAA0BE0E8FEEF5C
:1019E00016161706E807F907C0F012161306E407E3
:1019F000F50798F0621B730B840B950B39F40A26DC
:101A000061F0232B242B252B21F408950A2609F4B9
:101A1000A140A6958FEF811D811D08950E94210D83
:101A20000C94950D0E94870D38F00E948E0D20F0C9
:101A3000952311F00C947E0D0C94840D11240C94BC
:101A4000C90D0E94A60D70F3959FC1F3950F50E04C
:101A5000551F629FF001729FBB27F00DB11D639F60
:101A6000AA27F00DB11DAA1F649F6627B00DA11D06
:101A7000661F829F2227B00DA11D621F739FB00DAC
:101A8000A11D621F839FA00D611D221F749F33271C
:101A9000A00D611D231F849F600D211D822F762FB5
:101AA0006A2F11249F5750409AF0F1F088234AF092
:101AB000EE0FFF1FBB1F661F771F881F91505040FE
:101AC000A9F79E3F510580F00C947E0D0C94C90D32
:101AD0005F3FE4F3983ED4F3869577956795B79585
:101AE000F795E7959F5FC1F7FE2B880F911D96959F
:101AF000879597F9089599278827089597F99F67FB
:101B000080E870E060E008959FEF80EC0895002485
:101B10000A941616170618060906089500240A9452
:101B200012161306140605060895092E0394000CD8
:101B300011F4882352F0BB0F40F4BF2B11F460FF67
:101B400004C06F5F7F4F8F4F9F4F089557FD905890
:101B5000440F551F59F05F3F71F04795880F97FB71
:101B6000991F61F09F3F79F087950895121613062B
:101B70001406551FF2CF4695F1DF08C0161617065A
:101B80001806991FF1CF869571056105089408958F
:101B9000E894BB2766277727CB0197F908950E9421
:101BA000110EA59F900DB49F900DA49F800D911DC7
:101BB000112408952F923F924F925F926F927F92DD
:101BC0008F929F92AF92BF92CF92DF92EF92FF924D
:101BD0000F931F93CF93DF93CDB7DEB7CA1BDB0BF9
:101BE0000FB6F894DEBF0FBECDBF09942A8839889E
:101BF00048885F846E847D848C849B84AA84B984A5
:101C0000C884DF80EE80FD800C811B81AA81B981B0
:101C1000CE0FD11D0FB6F894DEBF0FBECDBFED01C4
:101C20000895A29FB001B39FC001A39F700D811DB5
:101C30001124911DB29F700D811D1124911D0895D5
:101C40005058BB27AA270E94380E0C94950D0E946D
:101C5000870D38F00E948E0D20F039F49F3F19F463
:101C600026F40C94840D0EF4E095E7FB0C947E0DA5
:101C7000E92F0E94A60D58F3BA176207730784076D
:101C8000950720F079F4A6F50C94C80D0EF4E095B4
:101C90000B2EBA2FA02D0B01B90190010C01CA0126
:101CA000A0011124FF27591B99F0593F50F4503ED1
:101CB00068F11A16F040A22F232F342F4427585FC3
:101CC000F3CF469537952795A795F0405395C9F7DB
:101CD0007EF41F16BA0B620B730B840BBAF0915093
:101CE000A1F0FF0FBB1F661F771F881FC2F70EC032
:101CF000BA0F621F731F841F48F487957795679505
:101D0000B795F7959E3F08F0B0CF9395880F08F0F0
:101D10009927EE0F9795879508950E94A10E0C9430
:101D2000950D0E948E0D58F00E94870D40F029F409
:101D30005F3F29F00C947E0D51110C94C90D0C9449
:101D4000840D0E94A60D68F39923B1F3552391F3F6
:101D5000951B550BBB27AA2762177307840738F01A
:101D60009F5F5F4F220F331F441FAA1FA9F335D077
:101D70000E2E3AF0E0E832D091505040E695001C2B
:101D8000CAF72BD0FE2F29D0660F771F881FBB1FE5
:101D9000261737074807AB07B0E809F0BB0B802DC3
:101DA000BF01FF2793585F4F3AF09E3F510578F0EF
:101DB0000C947E0D0C94C90D5F3FE4F3983ED4F370
:101DC000869577956795B795F7959F5FC9F7880FC3
:101DD000911D9695879597F90895E1E0660F771F15
:101DE000881FBB1F621773078407BA0720F0621BA6
:101DF000730B840BBA0BEE1F88F7E09508950E94D1
:101E0000AE0D88F09F5798F0B92F9927B751B0F0D1
:101E1000E1F0660F771F881F991F1AF0BA95C9F76E
:101E200014C0B13091F00E94C80DB1E008950C9437
:101E3000C80D672F782F8827B85F39F0B93FCCF3EA
:101E4000869577956795B395D9F73EF490958095EB
:101E5000709561957F4F8F4F9F4F08950E94EA0CB8
:101E600008F48FEF089516F00C94880F0C94840DED
:101E700068940C947E0D0E94AE0DA8F39923C1F3D3
:101E8000AEF3DF93CF931F930F93FF92C92FDD27FC
:101E900088232AF02197660F771F881FDAF720E042
:101EA00030E040E85FEB9FE3883920F0803E38F077
:101EB00021968F770E94210EE8E6F0E004C00E9490
:101EC000210EE5E9F0E00E94960F8B01BE01EC01C6
:101ED000FB2E6F5771097595771F880B990B0E9420
:101EE000AF0C28E132E741E35FE30E94210DAF2D03
:101EF0009801AE01FF900F911F91CF91DF910E9449
:101F0000380E0C94950D0E94EA0C880B990B0895DD
:101F10009F3F31F0915020F4879577956795B7955D
:101F2000880F911D9695879597F90895DF93CF9324
:101F30001F930F93FF92EF92DF927B018C016894C5
:101F400006C0DA2EEF010E94210DFE01E894A59152
:101F50002591359145915591A6F3EF010E94380ED8
:101F6000FE019701A801DA9469F7DF90EF90FF90E6
:101F70000F911F91CF91DF910895A1E21A2EAA1B14
:101F8000BB1BFD010DC0AA1FBB1FEE1FFF1FA21729
:101F9000B307E407F50720F0A21BB30BE40BF50B26
:101FA000661F771F881F991F1A9469F760957095AF
:101FB000809590959B01AC01BD01CF010895EE0F76
:101FC000FF1F0590F491E02D09940F931F93CF9379
:101FD000DF938230910510F482E090E0E09181027D
:101FE000F091820230E020E0B0E0A0E0309799F478
:101FF0002115310509F44AC0281B390B243031055D
:10200000D8F58A819B816115710589F1FB01938364
:102010008283FE0111C040815181028113814817E2
:102020005907E0F04817590799F4109761F0129694
:102030000C93129713961C933296CF01DF91CF9198
:102040001F910F9108950093810210938202F4CFA3
:102050002115310551F04217530738F0A901DB0172
:102060009A01BD01DF01F801C1CFEF01F9CF9093D3
:10207000820280938102CDCFFE01E20FF31F819394
:1020800091932250310939832883D7CF20917F0241
:1020900030918002232B41F4209102013091030101
:1020A0003093800220937F02209100013091010142
:1020B0002115310541F42DB73EB7409104015091EF
:1020C0000501241B350BE0917F02F0918002E2179D
:1020D000F307A0F42E1B3F0B2817390778F0AC014B
:1020E0004E5F5F4F2417350748F04E0F5F1F509328
:1020F000800240937F02819391939FCFF0E0E0E0D4
:102100009CCFCF93DF930097E9F0FC0132971382C5
:102110001282A0918102B0918202ED0130E020E0B4
:102120001097A1F420813181820F931F20917F02AB
:10213000309180022817390709F061C0F0938002BE
:10214000E0937F02DF91CF910895EA01CE17DF0778
:10215000E8F54A815B819E0141155105B1F7E9011E
:10216000FB83EA8349915991C40FD51FEC17FD07F2
:1021700061F4808191810296840F951FE901998312
:102180008883828193819B838A83F0E0E0E01296CA
:102190008D919C9113970097B9F52D913C911197D2
:1021A000CD010296820F931F20917F023091800211
:1021B0002817390739F6309751F51092820210929C
:1021C0008102B0938002A0937F02BCCFD383C283ED
:1021D00040815181840F951FC817D90761F44E5F64
:1021E0005F4F88819981480F591F518340838A81AD
:1021F0009B81938382832115310509F0B0CFF09341
:102200008202E09381029ECFFD01DC01C0CF1382E8
:102210001282D7CFB0E0A0E0E0E1F1E10C94DC0D58
:102220008C01009751F4CB010E94E50F8C01C8018D
:10223000CDB7DEB7E0E10C94F80DFC01E60FF71F17
:102240009C0122503109E217F30708F49DC0D9011F
:10225000CD91DC911197C617D70798F0C530D105FD
:1022600030F3CE0104978617970708F3C61BD70BE8
:102270002297C193D1936D937C93CF010E948110DB
:10228000D6CF5B01AC1ABD0A4C018C0E9D1EA091ED
:102290008102B0918202512C412CF12CE12C10973B
:1022A00031F580917F02909180028815990509F09F
:1022B0005CC04616570608F058C080910001909106
:1022C0000101009741F48DB79EB7409104015091F0
:1022D0000501841B950BE817F90708F055C0F0932A
:1022E0008002E0937F02F90171836083A0CF8D911A
:1022F0009C91119712966C90129713967C9013975D
:10230000A815B90559F56C0142E0C40ED11CCA14D8
:10231000DB0420F1AC014A195B09DA01129615972A
:1023200080F06282738251834083D9016D937C93E4
:10233000E114F10471F0D7011396FC93EE93129718
:1023400076CF22968C0F9D1FF90191838083F30134
:10235000EFCFF0938202E093810269CF48165906CD
:1023600008F42C017D01D3019ACFCB010E94E50F27
:102370007C01009749F0AE01B8010E94C711C80165
:102380000E948110870153CF10E000E050CFFB0185
:10239000DC0102C001900D9241505040D8F70895E1
:1023A000FB01DC0101900D920020E1F70895F89403
:0223B000FFCF5D
:1023B20000008302800000000000D101F1001E0134
:1023C2001E028F012D0181016E616E00696E660031
:1023D2006F7666000D0A00413A2000423A2000431F
:0E23E2003A200054454D50203D20002043007D
:00000001FF
