:100000000C94A8000C94D0000C94D0000C94D00058
:100010000C94D0000C94D0000C94D0000C94D00020
:100020000C94D0000C94D0000C94D0000C94D00010
:100030000C94D0000C94D0000C94D0000C94D00000
:100040000C94B2050C94D0000C9480050C945A05C5
:100050000C94D0000C94D0000C94D0000C94D000E0
:100060000C94FC050C94D00008000000BE922449BA
:10007000123EABAAAA2ABECDCCCC4C3E00000080DA
:10008000BEABAAAAAA3E00000000BF000000803F4D
:100090000000000000084178D3BB4387D1133D190D
:1000A0000E3CC3BD4282AD2B3E68EC8276BED98F3A
:1000B000E1A93E4C80EFFFBE01C4FF7F3F0000007E
:1000C00000004E414E494E495459494E46CDCCCC84
:1000D0003D0AD7233C17B7D13877CC2B329595E61C
:1000E000241FB14F0A000020410000C84200401CFC
:1000F0004620BCBE4CCA1B0E5AAEC59D7400000003
:1001000008000201000003040700000000000000D6
:100110000000000000250028002B00000000002443
:100120000027002A00040404040404040402020258
:100130000202020303030303030102040810204028
:100140008001020408102001020408102000170793
:1001500011241FBECFEFD8E0DEBFCDBF22E0AEE35B
:10016000B1E001C01D92AF37B207E1F711E0A0E0A6
:10017000B1E0E6E6F3E202C005900D92AE33B107BE
:10018000D9F710E0C8EAD0E004C02197FE010E9430
:10019000B90FC73AD107C9F70E9444070C94B111AF
:1001A0000C94000090E0FC01E75CFE4F24918B5D15
:1001B0009E4FFC018491882399F090E0880F991F4D
:1001C000FC01E55EFE4FA591B491FC01EF5EFE4F90
:1001D000859194918FB7F894EC91E22BEC938FBFBB
:1001E0000895AF92BF92CF92DF92EF92FF920F935A
:1001F0001F93CF93DF936C017B018B01040F151FBD
:10020000EB015E01AE18BF08C017D10759F0699124
:10021000D601ED91FC910190F081E02DC601099588
:10022000892B79F7C501DF91CF911F910F91FF9035
:10023000EF90DF90CF90BF90AF900895FC01538D69
:10024000448D252F30E0842F90E0821B930B5417B0
:1002500010F0CF96089501970895FC01918D828D3D
:10026000981761F0A28DAE0FBF2FB11D5D968C91D6
:10027000928D9F5F9F73928F90E008958FEF9FEF15
:1002800008952FB7F8948091D8019091D901A09149
:10029000DA01B091DB012FBF8093E4019093E50177
:1002A000A093E601B093E7018CED91E00E942D014F
:1002B00097FF26C02FB7F8948091D8019091D9016B
:1002C000A091DA01B091DB012FBF4091E401509180
:1002D000E5016091E6017091E701841B950BA60B87
:1002E000B70B4091E0015091E1016091E201709102
:1002F000E30184179507A607B707B0F28FEF9FEFCA
:100300000895FC01918D828D981731F0828DE80F50
:10031000F11D858D90E008958FEF9FEF0895FC010A
:10032000918D228D892F90E0805C9F4F821B9109D7
:100330008F73992708958CED91E00E948F0121E041
:10034000892B09F420E0822F089580E090E0892B2A
:1003500029F00E949B0181110C9400000895FC017A
:10036000A48DA80FB92FB11DA35ABF4F2C91848D16
:1003700090E001968F739927848FA689B7892C9373
:10038000A089B1898C91837080648C93938D848DC6
:10039000981306C00288F389E02D80818F7D8083C9
:1003A0000895EF92FF920F931F93CF93DF93EC0189
:1003B00081E0888F9B8D8C8D98131AC0E889F9890C
:1003C000808185FF15C09FB7F894EE89FF8960830F
:1003D000E889F98980818370806480839FBF81E090
:1003E00090E0DF91CF911F910F91FF90EF900895D2
:1003F000F62E0B8D10E00F5F1F4F0F731127E02EAD
:100400008C8D8E110CC00FB607FCFACFE889F989E4
:10041000808185FFF5CFCE010E94AF01F1CFEB8D3A
:10042000EC0FFD2FF11DE35AFF4FF0829FB7F894B8
:100430000B8FEA89FB8980818062CFCFCF93DF93D6
:10044000EC01888D8823B9F0AA89BB89E889F989EC
:100450008C9185FD03C0808186FD0DC00FB607FC21
:10046000F7CF8C9185FFF2CF808185FFEDCFCE0154
:100470000E94AF01E9CFDF91CF91089590E0FC0198
:10048000E350FF4F2491FC01E75CFE4F3491FC01E7
:10049000EB5DFE4FE491EE23C9F0222339F02330C7
:1004A00001F1A8F4213019F1223029F1F0E0EE0F2A
:1004B000FF1FEF5EFE4FA591B4918FB7F894EC91BA
:1004C000611126C030953E233C938FBF089527309D
:1004D000A9F02830C9F0243049F7809180008F7D41
:1004E00003C0809180008F7780938000DFCF84B538
:1004F0008F7784BDDBCF84B58F7DFBCF8091B0003B
:100500008F778093B000D2CF8091B0008F7DF9CFEC
:100510003E2BDACF8E3008F08E5087708064809347
:100520007C0080917A00806480937A0080917A00C8
:1005300086FDFCCF809178009091790008953FB7B7
:10054000F8948091AA019091AB01A091AC01B09177
:10055000AD0126B5A89B05C02F3F19F00196A11D3E
:10056000B11D3FBFBA2FA92F982F8827BC01CD01FD
:10057000620F711D811D911D42E0660F771F881F5C
:10058000991F4A95D1F708958F929F92AF92BF928B
:10059000CF92DF92EF92FF920E949F024B015C018B
:1005A00084E6C82ED12CE12CF12C0E949F02681900
:1005B00079098A099B09683E734081059105A8F372
:1005C00021E0C21AD108E108F10888EE880E83E024
:1005D000981EA11CB11CC114D104E104F10429F737
:1005E000FF90EF90DF90CF90BF90AF909F908F9053
:1005F000089585ED8093BC008091BC0084FDFCCF04
:1006000010928301089520915F01260F3327331F35
:1006100021323105ECF420918301FC0190E080E06F
:10062000243069F082E00895A0915F012191AC012E
:10063000415C5E4FA40FB52FB11D2C930196861718
:1006400098F380915F01680F60935F0180E00895E7
:1006500081E0089508958FEF9FEF08958FEF9FEF4A
:10066000089580913E0190E09195819591090895BA
:10067000CF93DF93CB01EA01642F0E940303CE01E5
:10068000DF91CF910895CF93DF931F92CDB7DEB75F
:10069000698361E0CE0101960E94030381E090E04E
:1006A0000F90DF91CF91089590E080E00895CF9270
:1006B000DF92EF92FF9281E00E948A02BC01990FC3
:1006C000880B990B0E94890C20E030E040EA50E44E
:1006D0000E94E80C20E030EC4FE754E40E94670EE3
:1006E0006B017C0180E00E948A02BC01990F880B9B
:1006F000990B0E94890CA70196010E94E80C20E04A
:1007000030E040E85AE30E94E80C9B01AC01C701CD
:10071000B6010E94670E20E030E44CE156E40E94EE
:10072000E80C20E030E040E85FE30E94FA0DFF9023
:10073000EF90DF90CF900895FC0101900020E9F741
:100740003197AF01481B590BBC018CED91E00C9423
:10075000F1008F929F92AF92BF920F931F93CF930E
:10076000DF93CDB7DEB7A1970FB6F894DEBF0FBE0B
:10077000CDBF19A2423008F44AE08E010F5D1F4F31
:10078000842E912CB12CA12CA50194010E94970FCD
:10079000E62FB901CA01EA30F4F4E05DD801EE9326
:1007A0008D01232B242B252B79F790E080E01097E7
:1007B00019F0CD010E949C03A1960FB6F894DEBFFC
:1007C0000FBECDBFDF91CF911F910F91BF90AF9022
:1007D0009F908F900895E95CE1CF4F925F926F9266
:1007E0007F928F929F92AF92BF92CF92DF92EF92C1
:1007F000FF920F931F93CF936B017C01742EAC017A
:100800009B010E945D0F882399F088E191E0CF91D0
:100810001F910F91FF90EF90DF90CF90BF90AF901E
:100820009F908F907F906F905F904F900C949C035F
:1008300046015701E894B7F82FEF3FEF4FE75FE726
:10084000C501B4010E945D0F81110DC02FEF3FEF74
:100850004FE75FE7C501B4010E94820C18161CF433
:100860008CE191E0D4CF2FEF3FEF4FE75FE4C7017A
:10087000B6010E94080F18161CF480E291E0C7CF61
:100880002FEF3FEF4FE75FECC701B6010E94820CEC
:1008900087FDF3CF20E030E0A901C701B6010E9437
:1008A000820C10E000E087FF0AC06DE28CED91E061
:1008B0000E94D1018C01F7FAF094F7F8F094C0E0AF
:1008C00060E070E080E09FE37C1641F020E030E0E3
:1008D00040E251E40E94670ECF5FF6CFA701960178
:1008E0000E94FB0D2B013C010E94D90E4B015C01C3
:1008F0004AE00E94A9037C01E00EF11ECC23C1F165
:10090000C501B4010E94870C9B01AC01C301B20177
:100910000E94FA0D4B015C016EE28CED91E00E94A9
:10092000D101E80EF91EC15018F120E030E040E29C
:1009300051E4C501B4010E94E80C2B013C010E9466
:10094000D90E4B01B12CA12C4AE0C501B4010E9483
:10095000A903E80EF91EC501B4010E94870C9B0192
:10096000AC01C301B2010E94FA0D4B015C01DBCF67
:10097000C701CF911F910F91FF90EF90DF90CF9023
:10098000BF90AF909F908F907F906F905F904F90AF
:100990000895CF93DF930E94ED03EC0184E291E090
:1009A0000E949C038C0F9D1FDF91CF9108950F93A0
:1009B0001F93CF93DF93EC0188819981009759F0C1
:1009C0002A813B812617370730F081E0DF91CF91F4
:1009D0001F910F9108958B016F5F7F4F0E94E4106C
:1009E000009759F0998388831B830A832C813D816A
:1009F000232B59F7FC011082E8CF80E0E7CFEF927C
:100A0000FF920F931F93CF93DF9300D0CDB7DEB744
:100A10008C01FC01118210821382128215821482D1
:100A200070E060E00E94D704F801208131818111DB
:100A30002FC02115310519F0C9010E945B10F80182
:100A40001182108215821482138212820E94410147
:100A500097FD26C089831A82F801E480F580FFEFB4
:100A6000EF1AFF0AB701C8010E94D704882371F367
:100A7000F8012081318184819581BE016F5F7F4FB4
:100A8000820F931F0E94AA11F801F582E482DECF43
:100A90001582148266E271E0C9010E94AA11D6CFC4
:100AA000C8010F900F90DF91CF911F910F91FF9090
:100AB000EF9008951F920F920FB60F9211242F936B
:100AC0003F934F935F936F937F938F939F93AF93D6
:100AD000BF93EF93FF938CED91E00E94AF01FF91E4
:100AE000EF91BF91AF919F918F917F916F915F91A6
:100AF0004F913F912F910F900FBE0F901F9018951F
:100B00001F920F920FB60F9211242F938F939F93E2
:100B1000EF93FF93E091EC01F091ED018081E09182
:100B2000F201F091F30182FD1BC090818091F501EB
:100B30008F5F8F732091F601821741F0E091F501EC
:100B4000F0E0E452FE4F958F8093F501FF91EF9115
:100B50009F918F912F910F900FBE0F901F9018951E
:100B60008081F4CF1F920F920FB60F9211242F9312
:100B70003F938F939F93AF93BF938091D8019091B0
:100B8000D901A091DA01B091DB013091A90123E0F4
:100B9000230F2D3758F50196A11DB11D2093A901F2
:100BA0008093D8019093D901A093DA01B093DB012F
:100BB0008091AA019091AB01A091AC01B091AD01DF
:100BC0000196A11DB11D8093AA019093AB01A09342
:100BD000AC01B093AD01BF91AF919F918F913F91C7
:100BE0002F910F900FBE0F901F90189526E8230F9E
:100BF0000296A11DB11DD2CF1F920F920FB60F9278
:100C000011242F933F934F935F936F937F938F9311
:100C10009F93AF93BF93EF93FF938091B900887F29
:100C2000803609F44AC0F0F5883209F4A5C018F5F9
:100C3000803109F499C0B8F4882309F4F5C08830EC
:100C400009F492C0FF91EF91BF91AF919F918F9165
:100C50007F916F915F914F913F912F910F900FBEB8
:100C60000F901F901895883109F486C0803251F793
:100C70008093820114C0803409F49BC040F4803317
:100C8000B9F38833F9F68093820185ECAEC08035E4
:100C900009F483C0883509F494C0883499F60E9419
:100CA000F902D0CF883909F48AC038F5883729F09D
:100CB00050F4883611F0803729F683E08093830161
:100CC0001092810155C0883809F479C0803919F033
:100CD000803809F0B7CF80918101803208F06FC071
:100CE000E091810181E08E0F809381018091BB00B2
:100CF000F0E0EF59FE4F80833BC0803B39F0D0F4E9
:100D0000803A09F477C0883A09F09CCF84E0809358
:100D100083011092600110925F01F0E0E0E009951C
:100D200080915F0181110FC081E080935F0110927B
:100D30003F0109C0803C09F4A8CF883C09F4A5CF45
:100D4000883B09F07FCFE091600181E08E0F8093B6
:100D50006001F0E0E15CFE4F80818093BB009091E8
:100D6000600180915F0129C08091A8018093BB0040
:100D700085EC8093BC0066CF9091A7018091A6017D
:100D8000981758F5E091A70181E08E0F8093A70195
:100D9000F0E0EA57FE4F8081E9CFE091A70181E0C2
:100DA0008E0F8093A7018091BB00F0E0EA57FE4FC1
:100DB00080839091A7018091A6019817C8F285E8D9
:100DC000D8CFE091A70181E08E0F8093A701809199
:100DD000BB00F0E0EA57FE4F8083809185018111CE
:100DE0005ECF81E08093840184EA8093BC001092FE
:100DF000830128CF85EC8093BC0010928301809101
:100E00008101803230F4E0918101F0E0EF59FE4F32
:100E100010826091810170E081E691E0F0E0E0E015
:100E20000995109281010ECF1092820138CFECED1E
:100E3000F1E01382128288EE93E0A0E0B0E08483B8
:100E40009583A683B7838AE091E09183808385ECC4
:100E500090E09587848784EC90E09787868780EC84
:100E600090E0918B808B81EC90E0938B828B82EC75
:100E700090E0958B848B86EC90E0978B868B118E1F
:100E8000128E138E148E0895CF93DF93CDB7DEB7F5
:100E900066970FB6F894DEBF0FBECDBF789484B5C9
:100EA000826084BD84B5816084BD85B5826085BD66
:100EB00085B5816085BD80916E00816080936E00F4
:100EC00010928100809181008260809381008091E6
:100ED0008100816080938100809180008160809397
:100EE00080008091B10084608093B1008091B00057
:100EF00081608093B00080917A00846080937A0052
:100F000080917A00826080937A0080917A0081607B
:100F100080937A0080917A00806880937A001092A2
:100F2000C100E091EC01F091ED0182E08083E0915D
:100F3000E801F091E9011082E091EA01F091EB0102
:100F40008FEC80831092F401E091F001F091F101B7
:100F500086E08083E091EE01F091EF018081806175
:100F60008083E091EE01F091EF01808188608083C1
:100F7000E091EE01F091EF01808180688083E09143
:100F8000EE01F091EF0180818F7D80838BE00E94E4
:100F9000D2008CE00E94D2008DE00E94D20030E0AE
:100FA000232E30E0332E8CED91E00E948F012091B2
:100FB000D6013091D701181619060CF075C02330F0
:100FC00031050CF071C0CE0101960E94FF048981A9
:100FD0009A81009709F464C00E940D0B0091D6011C
:100FE0001091D70123E333E948E853E40E94FB0D55
:100FF0002B013C01000F111F000F111FF801E653D8
:10100000FE4F408251826282738289819A810E945E
:101010005B102AE0A22EB12CC12CD12C76010E94AB
:1010200057039B01AC01C701B6010E94FB0D6B0188
:101030007C010E94C40281E0A81AB10881F7025421
:101040001E4F20E030E040E251E4C701B6010E94AB
:10105000670EF801608371838283938342E050E0DE
:10106000C301B2010E94C904E091D601F091D701F9
:10107000EE0FFF1FEE0FFF1FE254FE4F60817181E4
:101080008281938142E050E00E94C9048091D601A0
:101090009091D70101969093D7018093D60183CF89
:1010A00060E070E0CB019ACF2330310509F055C1E3
:1010B0006091BE017091BF018091C0019091C1010A
:1010C0000E94150F6F83788789879A876091C20184
:1010D0007091C3018091C4019091C5010E94150FC8
:1010E0006B017C016091C6017091C7018091C801BC
:1010F0009091C9010E94150F4B015C012091CA011A
:101100003091CB014091CC015091CD0160E070E075
:1011100080E89FE30E94670E6B877C878D879E87A0
:101120002091CE013091CF014091D0015091D10159
:1011300060E070E080E89FE30E94670E2B853C85AD
:101140004D855E850E94FA0D2B013C012F8138856B
:1011500049855A85C701B6010E94FA0D9B01AC0171
:10116000C301B2010E94670E6F87788B898B9A8BBF
:101170002091D2013091D3014091D4015091D501F9
:1011800060E070E080E89FE30E94670E2B853C855D
:101190004D855E850E94FA0D2B013C012F8138851B
:1011A00049855A85C501B4010E94FA0D9B01AC0125
:1011B000C301B2010E94670E2F85388949895A8977
:1011C0000E94FA0D2B013C01A7019601C501B40153
:1011D0000E94FA0D9B01AC01C301B2010E94670E8F
:1011E0002B013C01A70196016F81788589859A853D
:1011F0000E94FB0DA50194010E94FB0D9B01AC0117
:1012000060E070E080E89FE30E94670E9B01AC0104
:10121000C301B2010E94E80C4B015C018092BA014B
:101220009092BB01A092BC01B092BD012F81388584
:1012300049855A85CA01B9010E94E80C2B013C017D
:10124000A70196016F81788589859A850E94E80CAF
:10125000A30192010E94FB0D6B8B7C8B8D8B9E8B6F
:10126000A7019601C701B6010E94E80C9B01AC01E1
:101270006B897C898D899E890E94FB0DA501940153
:101280000E94E80C9B01AC016F85788989899A8955
:101290000E94FA0D6B017C01C092B601D092B70199
:1012A000E092B801F092B901A3019201C501B40125
:1012B0000E94E80CA70196010E94FB0D2F81388542
:1012C00049855A850E94E80C9B01AC016B857C85A1
:1012D0008D859E850E94FA0D6093B2017093B301D3
:1012E0008093B4019093B50187E291E00E949C0342
:1012F0006091B2017091B3018091B4019091B501F8
:1013000041E150E00E94C9048BE291E00E949C03FD
:101310006091B6017091B7018091B8019091B901C7
:1013200041E150E00E94C9048FE291E00E949C03D9
:101330006091BA017091BB018091BC019091BD0197
:1013400041E150E00E94C9048091D6019091D701FB
:1013500001969093D7018093D6018CED91E00E9485
:101360008F01181619060CF09EC08091D60190913D
:10137000D70104970CF497C0CE0101960E94FF0498
:1013800089819A81009751F00E940D0B11E020E0B5
:1013900030E040E050EC0E94820C811110E0898125
:1013A0009A810E945B10112309F47DC00AE010E0CD
:1013B000C12CD12C76010E9457039B01AC01C701BF
:1013C000B6010E94FB0D6B017C010E94C40201501A
:1013D000110989F720E030E040E251E4C701B6018D
:1013E0000E94670E0E94150F6B017C012091B601CF
:1013F0003091B7014091B8015091B9010E94E80CB9
:101400002091B2013091B3014091B4015091B501E6
:101410000E94FB0D4B015C012091BA013091BB0190
:101420004091BC015091BD01C701B6010E94E80C7A
:10143000A70196010E94E80CA70196010E94E80C02
:101440009B01AC01C501B4010E94FB0D9B01AC01E5
:1014500060E070E080E89FE30E94670E23E333E9D9
:1014600048E853E40E94FA0D6093AE017093AF0117
:101470008093B0019093B10183E391E00E949C03BB
:101480006091AE017091AF018091B0019091B10176
:1014900043E00E94ED038BE391E00E949C0384E211
:1014A00091E00E949C038091D6019091D70104970E
:1014B0000CF46DC00E9457030E94150F6B017C0154
:1014C0002091B6013091B7014091B8015091B90116
:1014D0000E94E80C2091B2013091B3014091B40117
:1014E0005091B5010E94FB0D4B015C012091BA01A6
:1014F0003091BB014091BC015091BD01C701B601C3
:101500000E94E80CA70196010E94E80CA701960131
:101510000E94E80C9B01AC01C501B4010E94FB0DC7
:101520009B01AC0160E070E080E89FE30E94670EE1
:1015300023E333E948E853E40E94FA0D6B017C0190
:10154000C092AE01D092AF01E092B001F092B10131
:1015500020E030E0A9010E94080F181624F520E0D1
:1015600030E048EC51E4C701B6010E94820C87FFCD
:101570001AC061E08BE00E943E0260E08CE00E94B5
:101580003E0260E08DE00E943E020E94C4022114EF
:10159000310409F408CD0E949B01882309F403CD8E
:1015A0000E94000000CD20E030E040ED51E4C70192
:1015B000B6010E94080F18168CF420E030E048E4D1
:1015C00052E4C701B6010E94820C87FF07C061E0A8
:1015D0008CE00E943E0260E08BE0D1CF20E030E062
:1015E0004CE452E4C701B6010E94080F18166CF6CD
:1015F00020E030E044EB52E4C701B6010E94820CC7
:1016000087FFC3CF61E08DE00E943E0260E08CE086
:101610000E943E0260E08BE0B6CF662777270C94ED
:10162000110BB0E0A0E0E7E1FBE00C94BA0D5C0127
:101630007B016115710519F0DB018D939C93850188
:101640000F5F1F4FF501D0818D2F90E00E94610C3C
:101650006C01892BB9F5DD32B9F50F5F1F4FD5014C
:101660001196DC91C1E05801F1E0AF1AB10843E0F6
:1016700050E06AEC70E0C5010E946A0C892B69F5A4
:10168000680182E0C80ED11C45E050E065EC70E0D6
:10169000C6010E946A0C892B21F4680197E0C90EEB
:1016A000D11CE114F10419F0D701CD92DC9260E075
:1016B00070E080E89FEFC111FFC060E070E080E85B
:1016C0009FE7FAC05801BBCFDB3229F485010E5FDA
:1016D0001F4FF501D181C0E0C6CF43E050E062EC7E
:1016E00070E0C5010E946A0C892BE9F0F80110E056
:1016F00000E020E030E0A9015F01B0ED8B2E8D0EFF
:1017000089E08815C8F19C2E689491F88C2F887018
:10171000C2FF16C0811102C00F5F1F4F3196D50165
:10172000DC91C92DE9CFE114F10429F00E5F1F4FC0
:10173000F7011183008360E070E080EC9FE7BCC09C
:10174000882311F001501109A5E0B0E00E94A90D15
:101750009B01AC01220F331F441F551F280D311D63
:10176000411D511D283999E93907490799E1590760
:10177000A8F2C6609C2ED2CFAEEF8A1206C0C3FD7F
:101780003CC09C2E689493F8C9CFDF7DD534A9F571
:1017900080818D3239F4C061DF011296818162E06F
:1017A00070E006C0DF018B32C1F3119661E070E09A
:1017B00080535D01A61AB70A8A30F8F4E0E8CE1625
:1017C000ECE0DE065CF4B601660F771F660F771F4C
:1017D000C60ED71ECC0CDD1CC80ED11C5D01FFEF60
:1017E000AF1ABF0A8C9180538A30A8F1C4FF03C09E
:1017F000D194C194D1080C0D1D1DC1FF09C0E11485
:10180000F10431F081E0A81AB108D701AD92BC9281
:10181000CA01B9010E94870CC370C33009F4905803
:101820004B015C0120E030E0A9010E94820C88237A
:1018300009F440C0C9EFD0E017FF05C0119501952C
:101840001109C1EED0E06E01B8E1CB1AD10880E2F7
:10185000E82EF12C0FC0D501B1CFFE0125913591B5
:10186000459154910E191F09C501B4010E94E80C5D
:101870004B015C01D501C4010E151F0574F72497B7
:10188000F594E794CC16DD06A9F78A2F880F8B2FE5
:10189000881F8F3F49F020E030E0A901C501B40165
:1018A0000E94820C811106C082E290E090937A023D
:1018B00080937902C501B401CDB7DEB7ECE00C949A
:1018C000D60D91110C94550D803219F08950855028
:1018D000C8F70895FB01DC014150504088F08D911C
:1018E00081341CF08B350CF4805E659161341CF002
:1018F0006B350CF4605E861B611171F3990B0895D2
:10190000881BFCCF0E94C40C08F481E00895E89481
:1019100009C097FB3EF490958095709561957F4F37
:101920008F4F9F4F9923A9F0F92F96E9BB279395E5
:10193000F695879577956795B795F111F8CFFAF4F5
:10194000BB0F11F460FF1BC06F5F7F4F8F4F9F4F26
:1019500016C0882311F096E911C0772321F09EE884
:10196000872F762F05C0662371F096E8862F70E0EA
:1019700060E02AF09A95660F771F881FDAF7880FC4
:101980009695879597F90895990F0008550FAA0B1A
:10199000E0E8FEEF16161706E807F907C0F0121682
:1019A0001306E407F50798F0621B730B840B950B85
:1019B00039F40A2661F0232B242B252B21F40895DA
:1019C0000A2609F4A140A6958FEF811D811D089577
:1019D0000E94FB0C0C946F0D0E94610D38F00E9468
:1019E000680D20F0952311F00C94580D0C945E0DA9
:1019F00011240C94A30D0E94800D70F3959FC1F3E8
:101A0000950F50E0551F629FF001729FBB27F00DAC
:101A1000B11D639FAA27F00DB11DAA1F649F662701
:101A2000B00DA11D661F829F2227B00DA11D621F50
:101A3000739FB00DA11D621F839FA00D611D221F0A
:101A4000749F3327A00D611D231F849F600D211DEE
:101A5000822F762F6A2F11249F5750409AF0F1F071
:101A600088234AF0EE0FFF1FBB1F661F771F881FDA
:101A700091505040A9F79E3F510580F00C94580DAD
:101A80000C94A30D5F3FE4F3983ED4F386957795CD
:101A90006795B795F795E7959F5FC1F7FE2B880F80
:101AA000911D9695879597F9089599278827089508
:101AB00097F99F6780E870E060E008959FEF80EC01
:101AC000089500240A9416161706180609060895A4
:101AD00000240A9412161306140605060895092E0A
:101AE0000394000C11F4882352F0BB0F40F4BF2B79
:101AF00011F460FF04C06F5F7F4F8F4F9F4F0895B9
:101B000057FD9058440F551F59F05F3F71F04795AE
:101B1000880F97FB991F61F09F3F79F08795089593
:101B2000121613061406551FF2CF4695F1DF08C0B2
:101B3000161617061806991FF1CF869571056105CF
:101B400008940895E894BB2766277727CB0197F977
:101B500008950E94EB0DA59F900DB49F900DA49F3A
:101B6000800D911D112408952F923F924F925F9204
:101B70006F927F928F929F92AF92BF92CF92DF929D
:101B8000EF92FF920F931F93CF93DF93CDB7DEB702
:101B9000CA1BDB0B0FB6F894DEBF0FBECDBF099496
:101BA0002A88398848885F846E847D848C849B84ED
:101BB000AA84B984C884DF80EE80FD800C811B81FB
:101BC000AA81B981CE0FD11D0FB6F894DEBF0FBE2A
:101BD000CDBFED010895A29FB001B39FC001A39FA7
:101BE000700D811D1124911DB29F700D811D112456
:101BF000911D08955058BB27AA270E94120E0C94DD
:101C00006F0D0E94610D38F00E94680D20F039F4CC
:101C10009F3F19F426F40C945E0D0EF4E095E7FB5B
:101C20000C94580DE92F0E94800D58F3BA176207E3
:101C300073078407950720F079F4A6F50C94A20D9C
:101C40000EF4E0950B2EBA2FA02D0B01B9019001D7
:101C50000C01CA01A0011124FF27591B99F0593F1B
:101C600050F4503E68F11A16F040A22F232F342F63
:101C70004427585FF3CF469537952795A795F040B1
:101C80005395C9F77EF41F16BA0B620B730B840BC6
:101C9000BAF09150A1F0FF0FBB1F661F771F881F7E
:101CA000C2F70EC0BA0F621F731F841F48F48795D6
:101CB00077956795B795F7959E3F08F0B0CF9395C8
:101CC000880F08F09927EE0F9795879508950E9441
:101CD0007B0E0C946F0D0E94680D58F00E94610DF0
:101CE00040F029F45F3F29F00C94580D51110C94E9
:101CF000A30D0C945E0D0E94800D68F39923B1F33F
:101D0000552391F3951B550BBB27AA276217730721
:101D1000840738F09F5F5F4F220F331F441FAA1FB5
:101D2000A9F335D00E2E3AF0E0E832D09150504071
:101D3000E695001CCAF72BD0FE2F29D0660F771F1F
:101D4000881FBB1F261737074807AB07B0E809F005
:101D5000BB0B802DBF01FF2793585F4F3AF09E3F8A
:101D6000510578F00C94580D0C94A30D5F3FE4F3EB
:101D7000983ED4F3869577956795B795F7959F5FCD
:101D8000C9F7880F911D9695879597F90895E1E019
:101D9000660F771F881FBB1F621773078407BA0778
:101DA00020F0621B730B840BBA0BEE1F88F7E095D3
:101DB00008950E94880D88F09F5798F0B92F9927B1
:101DC000B751B0F0E1F0660F771F881F991F1AF026
:101DD000BA95C9F714C0B13091F00E94A20DB1E0DC
:101DE00008950C94A20D672F782F8827B85F39F0DB
:101DF000B93FCCF3869577956795B395D9F73EF4BF
:101E000090958095709561957F4F8F4F9F4F089566
:101E10000E94C40C08F48FEF089516F00C94620F22
:101E20000C945E0D68940C94580D0E94880DA8F3D4
:101E30009923C1F3AEF3DF93CF931F930F93FF92D8
:101E4000C92FDD2788232AF02197660F771F881F67
:101E5000DAF720E030E040E85FEB9FE3883920F0DC
:101E6000803E38F021968F770E94FB0DE8E6F0E087
:101E700004C00E94FB0DE5E9F0E00E94700F8B01A9
:101E8000BE01EC01FB2E6F5771097595771F880B0A
:101E9000990B0E94890C28E132E741E35FE30E943D
:101EA000FB0CAF2D9801AE01FF900F911F91CF91C8
:101EB000DF910E94120E0C946F0D0E94C40C880BCF
:101EC000990B08959F3F31F0915020F487957795B5
:101ED0006795B795880F911D9695879597F9089501
:101EE000DF93CF931F930F93FF92EF92DF927B01CB
:101EF0008C01689406C0DA2EEF010E94FB0CFE01F3
:101F0000E894A5912591359145915591A6F3EF015E
:101F10000E94120EFE019701A801DA9469F7DF9082
:101F2000EF90FF900F911F91CF91DF910895A1E263
:101F30001A2EAA1BBB1BFD010DC0AA1FBB1FEE1F43
:101F4000FF1FA217B307E407F50720F0A21BB30B8E
:101F5000E40BF50B661F771F881F991F1A9469F70A
:101F600060957095809590959B01AC01BD01CF0166
:101F70000895EE0FFF1F0590F491E02D09940F9343
:101F80001F93CF93DF938230910510F482E090E0AD
:101F9000E0917D02F0917E0230E020E0B0E0A0E030
:101FA000309799F42115310509F44AC0281B390BE3
:101FB00024303105D8F58A819B816115710589F13D
:101FC000FB0193838283FE0111C040815181028114
:101FD000138148175907E0F04817590799F41097EB
:101FE00061F012960C93129713961C933296CF01C0
:101FF000DF91CF911F910F91089500937D0210936F
:102000007E02F4CF2115310551F04217530738F005
:10201000A901DB019A01BD01DF01F801C1CFEF0188
:10202000F9CF90937E0280937D02CDCFFE01E20F27
:10203000F31F819391932250310939832883D7CF9D
:1020400020917B0230917C02232B41F420910201EC
:102050003091030130937C0220937B022091000198
:10206000309101012115310541F42DB73EB7409162
:10207000040150910501241B350BE0917B02F09186
:102080007C02E217F307A0F42E1B3F0B2817390739
:1020900078F0AC014E5F5F4F2417350748F04E0FC4
:1020A0005F1F50937C0240937B02819391939FCF5B
:1020B000F0E0E0E09CCFCF93DF930097E9F0FC01E4
:1020C000329713821282A0917D02B0917E02ED01BF
:1020D00030E020E01097A1F420813181820F931F1E
:1020E00020917B0230917C022817390709F061C0EA
:1020F000F0937C02E0937B02DF91CF910895EA0197
:10210000CE17DF07E8F54A815B819E014115510535
:10211000B1F7E901FB83EA8349915991C40FD51FB7
:10212000EC17FD0761F4808191810296840F951F61
:10213000E90199838883828193819B838A83F0E07C
:10214000E0E012968D919C9113970097B9F52D912F
:102150003C911197CD010296820F931F20917B0233
:1021600030917C022817390739F6309751F51092D3
:102170007E0210927D02B0937C02A0937B02BCCFC2
:10218000D383C28340815181840F951FC817D9071B
:1021900061F44E5F5F4F88819981480F591F5183C9
:1021A00040838A819B81938382832115310509F0C5
:1021B000B0CFF0937E02E0937D029ECFFD01DC0163
:1021C000C0CF13821282D7CFB0E0A0E0EAEEF0E1F8
:1021D0000C94B60D8C01009751F4CB010E94BF0FF7
:1021E0008C01C801CDB7DEB7E0E10C94D20DFC0143
:1021F000E60FF71F9C0122503109E217F30708F49C
:102200009DC0D901CD91DC911197C617D70798F0E1
:10221000C530D10530F3CE0104978617970708F330
:10222000C61BD70B2297C193D1936D937C93CF019B
:102230000E945B10D6CF5B01AC1ABD0A4C018C0E1C
:102240009D1EA0917D02B0917E02512C412CF12C5B
:10225000E12C109731F580917B0290917C028815DA
:10226000990509F05CC04616570608F058C08091E1
:10227000000190910101009741F48DB79EB7409104
:10228000040150910501841B950BE817F90708F02C
:1022900055C0F0937C02E0937B02F9017183608367
:1022A000A0CF8D919C91119712966C9012971396D6
:1022B0007C901397A815B90559F56C0142E0C40E3E
:1022C000D11CCA14DB0420F1AC014A195B09DA0104
:1022D0001296159780F06282738251834083D901F0
:1022E0006D937C93E114F10471F0D7011396FC9384
:1022F000EE93129776CF22968C0F9D1FF901918352
:102300008083F301EFCFF0937E02E0937D0269CFEB
:102310004816590608F42C017D01D3019ACFCB0150
:102320000E94BF0F7C01009749F0AE01B8010E94E6
:10233000A111C8010E945B10870153CF10E000E09B
:1023400050CFFB01DC0102C001900D924150504082
:10235000D8F70895FB01DC0101900D920020E1F710
:062360000895F894FFCF80
:1023660000007F02800000000000D101F1001E0184
:102376001E028F012D0181016E616E00696E66007D
:102386006F7666000D0A00413A2000423A2000436B
:0E2396003A200054454D50203D2000204300C9
:00000001FF
